:020000020000FC
:080000000C9434000C946E0016
:100068000FEF0DBF08E00EBF0FE707B9259A00E0B4
:100078000AB95A9A5B9A02E00093690001E00DBB45
:1000880078940E944C000E94570000270C944A0064
:10009800FAE0E0E0B1E0A0E03AE005910D933A958E
:1000A8003323D9F70895B1E0A0E0002736E00D9199
:1000B8003A953323E1F70E9463000E910895102FBB
:1000C800202F1E77169518B921702295207F220FB0
:1000D80025B9089500000E94950000004A990C94E3
:1000E80093004B9B0C947A000C9487000C910B376F
:1000F80031F00D910C910E9463000C9493000E94C2
:1001080063000C9493000C910E3729F00E910E9415
:1001180063000C9493000E9463000C949300E09A8F
:10012800189550ED6AEC6A95F1F75A95E1F70000D9
:02013800089528
:0A0A00007E306D79335B5F707F7B01
:00000001FF
