:020000020000FC
:0C0000000C9434000C944F000C94590038
:100068000FEF0DBF08E00EBF00E20AB90FE00093E2
:10007800690003E00DBB789403E204BD05E005BD0B
:10008800222710E018BD20FD0E946B0021FD0E9470
:1000980072000C94470000000E94630000004A9B15
:1000A8000C94570022E0E09A189500000E94630023
:1000B80000004B9B0C94610021E0E09A189550EDEC
:1000C8006AEC6A95F1F75A95E1F7000008951C3F2C
:1000D80021F00FE3100F18BD22270895103021F0EA
:0A00E8000FE3101B18BD2227089536
:00000001FF
