:020000020000FC
:040000000C94340028
:100068000FEF0DBF08E00EBF0FE004B90EEF0AB99D
:1000780000E00093C50007E60093C40008E1009380
:10008800C10006E00093C2000E9450000E945F0079
:100098000E9467000C944A00F1E0E0E015911030EE
:1000A80049F00091C00005FF0C9455001093C6005C
:1000B8000C94520008950091C00007FF0C945F0053
:1000C8002091C6000895213039F0223041F02330C4
:1000D80049F0243051F0089531E00C947C0032E06E
:1000E8000C947C0034E00C947C0038E00C947C0088
:1000F80005B1032705B908952A2A2A20486F6C619B
:10010800204C61626F206465204D6963726F202AFC
:100118002A2A0A0A4573637269626120312C322CDB
:1001280033206F2034207061726120636F6E7472A7
:0E0138006F6C6172206C6F73204C4544730035
:00000001FF
