:020000020000FC
:040000000C94340028
:100068000FEF0DBF08E00EBF00E004B901E005B9CD
:1000780000E20AB900E007B900E00093C50007E60E
:100088000093C40008E10093C10006E00093C20099
:1000980003E204BD05E005BD0FE708BD00E00093DD
:1000A800800002E4009381000E946A0000E000934F
:1000B800810000E600937C0007EE00937A0000E0E0
:1000C80000937B000E9493000C9466001127B1E016
:1000D800A0E006B305FF0C946D00209186003091D6
:1000E8008700B59A06B305FF0C947600B59A50912F
:1000F8008600521B5D9360918700630B6D93B1E09E
:10010800A0E04D911395133049F00091C00005FF10
:100118000C9489004093C6000C94850008950091C2
:10012800C00005FF0C949300409179004093C600ED
:02013800089528
:00000001FF
